:020000040800F2
:100000001804002045010008130B00087F0A0008AF
:10001000110B00088D010008E90B0008000000002A
:10002000000000000000000000000000370B000886
:100030008F01000800000000350B0008390B000894
:100040005F0100085F0100085F0100085F01000810
:100050005F0100085F010008910100085F010008CE
:100060005F0100085F0100085F0100085F010008F0
:100070005F0100085F0100085F0100085F010008E0
:100080005F0100085F0100085F0100085F010008D0
:100090005F0100085F0100085F0100085F010008C0
:1000A0005F0100085F0100085F0100085F010008B0
:1000B0005F0100085F0100085F0100085F010008A0
:1000C0005F0100085F0100085F0100085F01000890
:1000D0005F0100085F0100085F0100085F01000880
:1000E0005F0100085F0100085F0100085F01000870
:1000F0005F0100085F0100085F0100085F01000860
:100100005F0100085F0100085F0100085F0100084F
:100110005F0100085F0100085F0100085F0100083F
:100120005F0100085F0100085F0100085F0100082F
:10013000DFF80CD000F018F800480047090C000860
:10014000180400200648804706480047FEE7FEE7FF
:10015000FEE7FEE7FEE7FEE7FEE7FEE7FEE7FEE777
:10016000A10B000831010008064C074D06E0E068CD
:1001700040F0010394E8070098471034AC42F6D3EE
:10018000FFF7DAFF780C0008980C0008FEE77047CC
:10019000012000F01BB8000070B5044600F01CF907
:1001A0000546601C02D004480078044400F014F9AD
:1001B000401BA042FAD370BD04000020012801D1E9
:1001C000014908607047000000000020044910B594
:1001D0000A68024202D00860FFF7F0FF10BD00007D
:1001E000140401402DE9F84FDFF8B8A100220AF10C
:1001F000040B144601274FF00F090BF1040E00BF4A
:100200000B6807FA04F52B40AB4274D1DFF898C1B4
:100210004E68A6EB0C0866452BD00DDC032E34D0BF
:1002200005DC36B3012E19D0022E2FD11BE0112E82
:1002300016D0122E2AD119E0B8F5881F19D006DC85
:10024000B8F5803F15D0B8F5801F1FD111E0B8F583
:10025000001F0ED0B8F5041F18D10AE0CA6815E0D7
:10026000CA68121D12E0CA6808320FE0CA680C3270
:100270000CE08A682AB1012A4FF0080203D04561D8
:1002800004E0042202E0056100E00022FF2B01D817
:10029000064601E000F104064FEA840501D9A5F104
:1002A0002005D6F800C009FA05F82CEA080C02FA75
:1002B00005F54CEA050CC6F800C04D68ED006AD59E
:1002C0003A4DAE6946F00106AE61AD6924F0030611
:1002D00005F001050095364D06EB050CDCF80850DD
:1002E000A6074FEA167809FA08F6B543314EB04230
:1002F00002D100261AE04EE02F4EB04201D1012675
:1003000014E02E4EB04201D102260FE02C4EB04236
:1003100001D103260AE02B4EB04201D1042605E0AC
:10032000294EB04201D1052600E0062606FA08F65D
:100330002E43CCF808604D68DAF80060ED035546AE
:1003400001D51E4300E09E432E604D68AD0305D5E8
:10035000DBF800601E43CBF8006004E0DBF80050DF
:100360009D43CBF800504D68DEF80060ED02754605
:1003700001D51E4300E09E432E604D68AD0205D5B9
:10038000084D0C352E681E432E6004E0054E0C36D9
:1003900035689D433560641C102CFFF431AFBDE817
:1003A000F88F00000004014000001110001002400E
:1003B0000000014000080140000C01400010014015
:1003C0000014014000180140001C01400AB1016105
:1003D00070470904FBE7000001488068704700008F
:1003E000040000200248816802781144816070474F
:1003F00004000020074810B5016841F010010160B9
:10040000032000F09DF8002000F006F800F024F82A
:10041000002010BD0020024070B50D4D04464FF481
:100420007A712878B1FBF0F00A490968B1FBF0F065
:1004300000F00DFB48B9102C07D200222146501EB7
:1004400000F05EF800206C6070BD012070BD0000FF
:100450000400002010000020214808B5816941F007
:1004600001018161816901F001010091C16941F0DF
:100470008051C161C06900F080500090032000F0FD
:100480005FF8002211466FF00B0000F039F80022EF
:1004900011466FF00A0000F033F8002211466FF0A9
:1004A000090000F02DF800221146501F00F028F836
:1004B00000221146101F00F023F800221146901E62
:1004C00000F01EF800221146501E00F019F80548F1
:1004D000416821F0E06141F00071416008BD000019
:1004E000001002400000014000F01F020121914075
:1004F0004009800000F1E020C0F8001170470000C2
:10050000F0B40E4B1B680C46C3F30223C3F107057E
:10051000042D00D90425191D072901D2002300E06C
:10052000DB1E012606FA05F1491E214099409E4036
:10053000761E16403143F0BC00F0ECBA0CED00E042
:10054000064900F0070208684FF6FF03184040EA2A
:100550000220034A10430860704700000CED00E0E1
:100560000000FA052DE9F047DFF83C8105460E460C
:10057000D8F8000000F00700B0420CD2D8F8001004
:1005800021F007013143C8F80010D8F8000000F04E
:100590000700B04263D12878444C800705D56068D5
:1005A000A96820F0F000084360602878C00745D0B3
:1005B0006868012816D02168022816D0890700290A
:1005C0004DDA616821F0030101436160FFF704FF28
:1005D0006968074641F2883001290FD00229814617
:1005E00019D027E021688903E9E78901E7E700BF1F
:1005F000FFF7F2FEC11B494501D918E0814660684A
:10060000C0F381000128F3D118E000BFFFF7E4FE3A
:10061000C11B49450BD86068C0F381000228F5D1A1
:100620000CE000BFFFF7D8FEC11B494502D90320EB
:10063000BDE8F087606810F00C0FF3D1D8F8001017
:10064000404601F00701B1420BD9016821F00701D2
:1006500031430160006800F00700B04201D0012082
:10066000E6E72878400705D56068E96820F4E0608F
:10067000084360602878000706D56068296920F47F
:10068000605040EAC100606000F01CF86168084AF0
:10069000C1F30311515CC840064908600020FFF710
:1006A000BBFE0020C4E70000002002400010024012
:1006B000680C000810000020014800687047000026
:1006C0001000002012A185B00FC98DE80F0014A002
:1006D000144A006804905168134801F00C03042B7D
:1006E00010D0082B0ED1C1F38343C9031DF80300BA
:1006F0000AD5516804AAC1F34041515C0A4A5043EB
:10070000B0FBF1F005B0704708494843FAE7000034
:1007100002030405060708090A0B0C0D0E0F101042
:10072000010200000010024000127A0000093D00A2
:100730002DE9F84F04460078B94DC00748D06868E5
:10074000C0F38100012807D06868C0F38100022847
:1007500009D16868C00306D52868800338D5606869
:1007600000286FD034E06068B0F5803F0BD010B146
:10077000B0F5A02F11D0286820F4803028602868B8
:1007800020F4802002E0286840F48030286060680F
:1007900088B1FFF721FE064609E0286840F4802072
:1007A0002860F0E7FFF718FE801B642875D82868DA
:1007B0008003F7D50CE0FFF70FFE064605E000BF0B
:1007C000FFF70AFE801B6428F0D828688003F7D45E
:1007D0002078944E80074FF001094FF000083BD578
:1007E000686810F00C0F07D06868C0F38100022819
:1007F00009D16868C00306D42868800714D5206929
:1008000001281FD110E02069B0B1C6F80090FFF7B1
:10081000E3FD074605E000BFFFF7DEFDC01B022831
:10082000C4D828688007F7D52868616920F0F800E7
:1008300040EAC10028600FE0C6F80080FFF7CCFD59
:10084000074606E0E9E000BFFFF7C6FDC01B02282F
:1008500023D828688007F7D4207800072CD5724861
:10086000A169D9B1C0F80090FFF7B6FD074604E0D2
:10087000FFF7B2FDC01B02280FD8686A8007F7D5C2
:100880006A484FF4FA510068B0FBF1F0009000BFE5
:100890000098411E0091FAD20EE080E0C0F800807E
:1008A000FFF79AFD074604E0FFF796FDC01B0228FC
:1008B00075D8686A8007F7D42078400760D5E86962
:1008C0000027C00008D4E86940F08050E861E8697A
:1008D000012700F08050009055480168C90513D4E5
:1008E0000168834641F480710160FFF775FD82461F
:1008F00006E000BFFFF770FDA0EB0A0064284ED8A9
:10090000DBF80000C005F5D5E06801280AD008B181
:10091000052813D0286A20F001002862286A20F0F8
:10092000040002E0286A40F001002862E06841F219
:10093000883B98B1FFF750FD82460BE0286A40F0F3
:1009400004002862EEE700BFFFF746FDA0EB0A01B6
:1009500059455AD8286A8007F6D50CE0FFF73CFDC8
:10096000824605E0FFF738FDA0EB0A0159454CD857
:10097000286A8007F6D41FB1E86920F08050E8614A
:10098000E06988B36968C1F38101022945D0022872
:10099000C6F8608004D0FFF71FFD044638E034E05D
:1009A000FFF71AFD074604E0FFF716FDC01B0228FB
:1009B0002BD828688001F7D4206AB0F5803F05D194
:1009C0006868A16820F4003008436860D4E9080131
:1009D0000843696821F4741108436860C6F86090A0
:1009E000FFF7FAFC044606E015E000BFFFF7F4FC51
:1009F000001B022809D828688001F7D50BE000BF4A
:100A0000FFF7EAFC001B022802D90320BDE8F88F9B
:100A100028688001F4D40020F8E70120F6E7000000
:100A200000100240000042428004424210000020B8
:100A3000007000404FF0E0210428086903D020F046
:100A400004000861704740F00400FAE7704710B5F1
:100A5000401EB0F1807F01D3012010BD4FF0E02493
:100A600060610F21601700F055F80020A061072099
:100A70002061002010BD10B5FFF7E8FF10BDFEE7B4
:100A800030B51F4885B0816941F0400181618169BD
:100A900001F040010491816941F010018161816997
:100AA00001F010010491816941F0040181618069C4
:100AB000144D00F004000490012260212846FFF745
:100AC00085FC60200124CDE9000400200290022072
:100AD000039069462846FFF785FB0B486946CDE938
:100AE00000400A480294FFF77DFB002211460620D1
:100AF000FFF706FD0620FFF7F7FC05B030BD00004C
:100B000000100240001801400000211000100140B8
:100B1000FEE770470907090E002806DA00F00F000B
:100B200000F1E02080F8141D704700F1E02080F80B
:100B3000001470477047704710B5FFF753FCBDE8CD
:100B40001040FFF798BF10B590B002200090012030
:100B5000049010200024059007946846FFF7E8FDF4
:100B600000B1FEE70F20CDE90A040C940D9400219A
:100B70000AA80E94FFF7F6FC00B1FEE7FFF79CFD14
:100B80004FF47A71B0FBF1F0FFF761FF0420FFF73B
:100B900051FF00221146501EFFF7B2FC10B010BDED
:100BA0000D48016841F00101016041680B4A1140A4
:100BB000416001680A4A11400160016821F4802106
:100BC0000160416821F4FE0141604FF41F01816022
:100BD0000449C00308607047001002400000FFF89D
:100BE000FFFFF6FE08ED00E0FEE702E008C8121F76
:100BF00008C1002AFAD170477047002001E001C106
:100C0000121F002AFBD17047FFF7F4FBFFF79BFF91
:100C1000FFF736FF124C002220212046FFF7D6FBBB
:100C2000012240212046FFF7D1FB0E4D4FF4FA760A
:100C3000286868B1012220212046FFF7C7FB002267
:100C400040212046FFF7C2FB3046FFF7A5FAEFE749
:100C5000002220212046FFF7B9FB0122F0E7000027
:100C6000001801400000002000000000000000000B
:100C70000102030406070809980C00080000002080
:100C800014000000EA0B0008AC0C0008140000205F
:100C900004040000FA0B000800000000010000003E
:0C0CA000100000000000000000A24A0448
:0400000508000131BD
:00000001FF
